:02000000ff00ff
:080002004c6174746963650030
:17000a00694345637562653220323031372e30382e32373934300069
:16002100506172743a2069434534304858314b2d545131343400fc
:1a003700446174653a20446563203620323031382031353a31323a323400c7
:0200510000ffae
:040053007eaa997e6a
:02005700510056
:0200590001059f
:03005b00920020f0
:03005e0062014bf1
:030061007200909a
:0300640082000017
:02006700110086
:02006900010193
:20006b0000000000000000000000000000000000000000000008000000000000000000006d
:09008b000000000000000000006c
:2000940000000000000000000000000000000000000000000000000000000000000000004c
:0a00b4000000000000000000000042
:2000be0000000000000000000000000000000000000000000004000000000000100000000e
:0900de0000000000000000000019
:2000e7000000000000000000000000000000000000000000000000000000000000000000f9
:0a01070000000000000000000000ee
:200111000000000000000000000000000000000000000000000800000000000000000000c6
:09013100000000000000000000c5
:20013a00000000000000000000000000000000000000000000000000000300000000004062
:0a015a00000000000000000000009b
:200164000000000000040000000000001000000000000040000000001000000000000040d7
:0901840000000000000100000071
:20018d00000000000000000000000000000000000000000000000000000000000000000052
:0a01ad000000000000000000000048
:2001b700000000000004000000000000100000000000004000000000300000000000008024
:0901d7000000000000010000001e
:2001e0000000000000000000000000000000000000000000000000000000000000000000ff
:0a02000000000000000000000000f4
:20020a000000000000000000000000000000000000000000000000d00010000000000000f4
:09022a004000000000000000008b
:20023300000000000000000000000000000000000000000000008000000100000200000028
:0a02530000000000000000000000a1
:20025d00000000000000000000000000000000000000000000000030000000000000000051
:09027d0000000000000000000078
:20028600000000000000000000000000000000000000000000004000000000000100000017
:0a02a600000000000000000000004e
:2002b00000000000000000000000000000000000000000000000000010000000000240409c
:0902d00000000000000000000025
:2002d900000000000000000000000000000000000000000000008000000000000200200063
:0a02f90000000000000000000000fb
:200303000000000000000000000000000000000000000000000000000000000000000002d8
:09032300bc1000000002caff003a
:20032c00000000000000000000000000000000000040000000000000000000000000000071
:0a034c0003c000000000070fa080ae
:20035600000000000000000000000000000000000000000000000000000000008000000007
:090376000000000020006eaf0041
:20037f00000000000000000000000000000000000000000000000000000000002000f0004e
:0a039f000000000003c0350a5010f2
:2003a900000000000000000000000000000000000000000000000000000000030000000031
:0903c9000000000000000000002b
:2003d20000000000000000000000000000000000000000000000000000000000100070008b
:0a03f200000000000003c00000003e
:2003fc000002000000000000000000000000000000000000000000000000000000000000df
:09041c00000000000000000000d7
:200425000000000000000000000000000000000000000000000000000000000000000000b7
:0a04450000000000000000000000ad
:20044f0000000000000000000000000000000000000000000000000000000000000000008d
:09046f0000000000002a0af5005b
:200478000000200000000000000000000000000000000000000000000000000000000090b4
:0a049800000000000000050fa000a6
:2004a20000000000000000000000000000000000000000000000000000000000000000003a
:0904c20000000000000000000031
:2004cb00000000000000000000000000000000000000000000000000000000000000000011
:0a04eb000000000000000000000007
:2004f5000000000000000000000000000000000000000000000000000000000000000000e7
:09051500000000000028000000b5
:20051e000000000000000000000000000000000000000000000000000000000000000000bd
:0a053e0000000000000000000000b3
:20054800000000000000000000000000000000000000000000000000000000010000000092
:090568000000000000000000008a
:2005710000000000000000000000000000000000000000000000000000000000100000005a
:0a0591000000000000000000000060
:20059b00000000000000000000000000000000000000000000000000000000000000000040
:0905bb000000000020000a5f406e
:2005c400000000000000000000000000000000000000000000000000000000000000000017
:0a05e4000000000003c0040af1004b
:2005ee000000000000000000000000000000000000000000000000000000000000000000ed
:09060e00000002000000000000e1
:200617000000000000000000000000000000000000000000000000000000000000000000c3
:0a06370000000080014000000000f8
:20064100000000000000000000000000000000000000000000000000000000000000000099
:09066100000004002078000000f4
:20066a0000000000000000000000000000000000000000000000000000000000000200006e
:0a068a00000000c000400000000066
:20069400000200000000000000000000000000000000000000000000000000000000000044
:0906b4000000000000000000003d
:2006bd0000000000000000000000000000000000000000000000000000000000000000001d
:0a06dd000000000000000000000013
:2006e7000000000000000000000000000000000000000000000000000000000000000000f3
:09070700000000000000000000e9
:200710000000200000000000000000000000000000000000000000000000000000000000a9
:0a07300000000000000000000000bf
:20073a0000000000000000000000000000000000000000000000000000000000000000009f
:09075a0000000000000000000096
:20076300000000000000000000000000000000000000000000000000000000000000000076
:0a078300000000000000000000006c
:20078d0000000000000000000000000000000000000000000000000000000000000000004c
:0907ad00000000008000000000c3
:2007b600000000000000000000000000000000000000000000000000000000000000000023
:0a07d6000000000014000000000005
:2007e0000000000000000000000000000000000000000000000000000000000000000000f9
:09080000000004000000000000eb
:200809000000000000000000000000000000000000000000000000000000000000000000cf
:0a0829000000004000000000000085
:200833000000000000000000000000000000000000000000000000000000000000000000a5
:090853000000000000000000009c
:20085c0000000000000000000000000000000000004000000000000000000000000000003c
:0a087c000000000000000000000072
:20088600000000000000000000000000000000000000000000000000000000000000000052
:0908a60000000000000000000049
:2008af00000000000000000000000000000000000000000000000000000000000000000029
:0a08cf00000000000000000000001f
:2008d9000000000000000000000000000000000000000000000000000000000000000000ff
:0908f900000000000000000000f6
:200902000000000000000000000000000000000000000000000000000000000000000000d5
:0a09220000000000000000000000cb
:20092c000002000000000000000000000000000000000000000000000000000000000000a9
:09094c00000000000000000000a2
:20095500000000000000000000000000000000000000000000000000000000000000000082
:0a0975000000000000000000000078
:20097f00000000000000000000000000000000000000000000000000000000000000000058
:09099f000000000000000000004f
:2009a80000002000000000000000000000000000000000000000000000000000000000000f
:0a09c8000000000000000000000025
:2009d200000000000000000000000000000000000000000000000000000000000000000005
:0909f200000000000000000000fc
:2009fb000000000000000000000000000000000000000000000000000000000000000000dc
:0a0a1b0000000000000000000000d1
:200a25000000000000000000000000000000000000000000000000000000000000000000b1
:090a4500000000000000000000a8
:200a4e00000000000000000000000000000000000000000000000000000000000000000088
:0a0a6e00000000000000000000007e
:200a780000000000000000000000000000000000000000000000000000000000000000005e
:090a980000000000000000000055
:200aa100000000000000000000000000000000000000000000000000000000000000000035
:0a0ac100000000000000000000002b
:200acb0000000000000000000000000000000000000000000000000000000000000000000b
:090aeb0000000000000000000002
:200af4000000000000000000000000000000000000000000000000000000000008000000da
:0a0b140000000020000000000000b7
:200b1e000000000000000000000000000000000000000000000000000000000000000000b7
:090b3e00000000000000000000ae
:200b470000000000000000000000000000000000000000000000000000000000000000008e
:0a0b67000000000000000000000084
:200b7100000000000000000000000000000000000000000000000000000000001000000054
:090b91000000000000000000005b
:200b9a000000000000000000000000000000000000000000000000000000000002800000b9
:0a0bba000000000000000000000031
:200bc40000020000000000000000000000000000000000000000000000000000000000000f
:090be40000000000000000000008
:200bed000000000000000000000000000000000000000000000000000000000000000000e8
:0a0c0d0000000000000000000000dd
:200c17000000000000000000000000000000000000000000000000000000000000000000bd
:090c3700000000000000000000b4
:200c4000000020000000000000000000000000000000000000000000000000000000000074
:0a0c6000000000000000000000008a
:200c6a0000000000000000000000000000000000000000000000000000000000000000006a
:090c8a0000000000000000000061
:200c9300000000000000000000000000000000000000000000000000000000000000000041
:0a0cb3000000000000000000000037
:200cbd00000000000000000000000000000000000000000000000000000000000000000017
:090cdd000000000000000000000e
:200ce6000000000000000000000000000000000000000000000000000000000000000000ee
:0a0d060000000000000000000000e3
:200d10000000000000000000000000000000000000000000000000000000000000000000c3
:090d3000000000000000000000ba
:200d390000000000000000000000000000000000000000000000000000000000000000009a
:0a0d59000000000000000000000090
:200d6300000000000000000000000000000000000000000000000000000000000000000070
:090d830000000000000000000067
:200d8c00000000000000000000000000000000000040000000000000000000000000000007
:0a0dac00000000200000000000001d
:200db60000000000000000000000000000000000000000000000000000000000000000001d
:090dd60000000000000000000014
:200ddf000000000000000000000000000000000000000000000000000000000000000000f4
:0a0dff0000000000000000000000ea
:200e09000000000000000000000000000000000000000000000000000000000000000000c9
:090e2900000001000000000000bf
:200e32000000000000000000000000000000000000000000000000000000000000000000a0
:0a0e52000000000000000000000096
:200e5c00000200000000000000000000000000000000000000000000000000000000000074
:090e7c000000000000000000006d
:200e850000000000000000000000000000000000000000000000000000000000000000004d
:0a0ea5000000000000000000000043
:200eaf00000000000000000000000000000000000000000000000000000000000000000023
:090ecf000000000000000000001a
:200ed8000000200000000000000000000000000000000000000000000000000000000000da
:0a0ef80000000000000000000000f0
:200f02000000000000000000000000000000000000000000000000000000000000000000cf
:090f2200000000000000000000c6
:200f2b000000000000000000000000000000000000000000000000000000000000000000a6
:0a0f4b00000000000000000000009c
:200f550000000000000000000000000000000000000000000000000000000000000000007c
:090f750000000000000000000073
:200f7e00000000000000000000000000000000000000000000000000000000000000000053
:0a0f9e000000000000000000000049
:200fa800000000000000000000000000000000000000000000000000000000000000000029
:090fc80000000000000000000020
:200fd100000000000000000000000000000000000000000000000000000000000000000000
:0a0ff10000000000000000000000f6
:200ffb000000000000000000000000000000000000000000001000000000000000000000c6
:09101b00000000040000000000c8
:201024000000000000000000000000000000000000000000000100000000000000000000ab
:0a10440000000000000000000000a2
:20104e00000000000000000000000000000000000000000000000000000000000000000082
:09106e0000000200200000000057
:20107700000000000000000000000000000000000000000000000000000000000000000059
:0a1097000000008003c0000000000c
:2010a10000000000000000000000000000000000000000000000000000000000000000002f
:0910c100000004000068000000ba
:2010ca00000000000000000000000000000000000000000000000000000000000000000006
:0a10ea00000000c000040000000038
:2010f4000002000000000000000000000000000000000000000000000000000000000000da
:09111400000000000000000000d2
:20111d000000000000000000000000000000000000000000000000000000000000000000b2
:0a113d000000000002c000000000e6
:20114700000000000000000000000000000000000000000000000000000000000000000088
:091167000000000000000000007f
:2011700000002000000000000000000000000000000000000000000000000000000000003f
:0a1190000000000000000000000055
:20119a00000000000000000000000000000000000000000000000000000000000000000035
:0911ba000000000000000000002c
:2011c30000000000000000000000000000000000000000000000000000000000000000000c
:0a11e3000000000000000000000002
:2011ed000000000000000000000000000000000000000000000000000000000000000000e2
:09120d000000000000001a0f505f
:201216000000000000000000000000000000000000000000000000000000000000000000b8
:0a1236000000000000000000f000be
:2012400000000000000000000000000000000000000000000000000000000000000000008e
:0912600000000400000000000081
:20126900000000000000000000000000000000000000000000000000000000000000000065
:0a128900000000400000000000001b
:2012930000000000000000000000000000000000000000000000000000000000000000003b
:0912b30000000000000000000032
:2012bc000000000000000000000000000000000000400000000000000000000000000000d2
:0a12dc000000000000000000000008
:2012e6000000000000000000000000000000000000000000000000000000000000000000e8
:09130600000000000000000000de
:20130f000000000000000000000000000000000000000000000000000000000000000000be
:0a132f0000000000000000000000b4
:20133900000000000000000000000000000000000000000000000000000000000000000094
:0913590000000000000000ff107c
:201362008000000000000000000000000000000000000000000000000000000000000000eb
:0a138200000000000000000ff01052
:20138c0000020000000000000000000000000000000000000000000000000000000000003f
:0913ac0000000000000000000038
:2013b500000000000000000000000000000000000000000000000000000000000000000018
:0a13d500000000000000000000000e
:2013df000000000000000000000000000000000000000000000000000000000000000000ee
:0913ff00000000000000000000e5
:201408000000200000000000000000000000000000000000000000000000000000000000a4
:0a14280000000000000000000000ba
:2014320000000000000000000000000000000000000000000000000000000000000000009a
:0914520000000000000000000091
:20145b00000000000000000000000000000000000000000000000000000000000000000071
:0a147b000000000000000000000067
:20148500000000000000000000000000000000000000000000000000000000000000000047
:0914a5000000000000000000003e
:2014ae0000000000000000000000000000000000000000000000000000000000000000001e
:0a14ce000000000000000000000014
:2014d8000000000000000000000000000000000000000000000000000000000000000000f4
:0914f800000000000000000000eb
:201501000000000000000000000000000000000000000000000000000000000000000000ca
:0a15210000000000000000000000c0
:20152b000000000000000000000000000000000000000000000000000000000000000000a0
:09154b0000000000000000000097
:20155400000000000000000000000000000000000000000000000000000000000000000077
:0a157400000000000000000000006d
:20157e0000000000000000000000000000000000000000000000000000000000000000004d
:09159e0000000000000000000044
:2015a700000000000000000000000000000000000000000000000000000000000000000024
:0a15c700000000000000000000001a
:2015d1000000000000000000000000000000000000000000000000000000000000000000fa
:0915f100000000000000000000f1
:2015fa000000000000000000000000000000000000000000000000000000000000000000d1
:0a161a0000000000000000000000c6
:201624000003000000000000000000000000000000000000000000000000000000000000a3
:091644000000000000000000009d
:20164d0000000000000000000000000000000000000000000000000000000000000000007d
:0a166d000000000000000000000073
:20167700000000000000000000000000000000000000000000000000000000000000000053
:091697000000000000000000004a
:2016a00000000000000000000000000000000000000000000000000000000000000000002a
:0a16c0000000000000000000000020
:2016ca00000000000000000000000000000000000000000000000000000000000000000000
:0916ea00000000000000000000f7
:2016f3000000000000000000000000000000000000000000000000000000000000000000d7
:0a17130000000000000000000000cc
:20171d000000000000000000000000000000000000000000000000000000000000000000ac
:09173d00000000000000000000a3
:2017460008000000000000000000000000000000000000000000000000000000000000007b
:0a1766000000000000000000000079
:20177000000000000000000000000000000000000000000000000000000000000000000059
:0917900000000000000000000050
:20179900100000000000000000000000000000000000000000000000000000000000000020
:0a17b9000000000000000000000026
:0217c300000024
:0217c500110110
:0217c70001011e
:2017c900000000000000000000000000000000000000000000000000000000000000000000
:0917e900000000000000000000f7
:2017f2000000000000000000000000000000000000000000000000000000000000000000d7
:0a18120000000000000000000000cc
:20181c000000000000000000000000000000000000000000000000000000000000000000ac
:09183c00000000000000000000a3
:20184500000000000000000000000000000000000000000000000000000000000000000083
:0a1865000000000000000000000079
:20186f00000000000000000000000000000000000000000000000000000000000000000059
:09188f0000000000000000000050
:20189800000000000000000000000000000000000000000000000000000000000000000030
:0a18b8000000000000000000000026
:2018c200000000000004000000000000100000000000004000000000100000000000004062
:0918e200000000000001000000fc
:2018eb000000000000000000000000000000000000000000000000000000000000000000dd
:0a190b0000000000000000000000d2
:2019150000000000000400000000000010000000000000400000000010000000000000400e
:09193500000000000001000000a8
:20193e00000000000000000000000000000000000000000000000000000000000000000089
:0a195e00000000000000000000007f
:2019680000000000000000000000000000000000000000000000000000000000000000005f
:0919880000000000000000000056
:20199100000000000000000000000000000000000000000000000000000000000000000036
:0a19b100000000000000000000002c
:2019bb0000000000000000000000000000000000000000000000000000000000000000000c
:0919db0000000000000000000003
:2019e4000000000000000000000000000000000000000000000000000000000000000000e3
:0a1a040000000000000000000000d8
:201a0e000000000000000000000000000000000000000000000000000000000000000000b8
:091a2e00000000000000000000af
:201a370000000000000000000000000000000000000000000000000000000000000000008f
:0a1a57000000000000000000000085
:201a6100000000000000000000000000000000000000000000000000000000000000000065
:091a81000000000000000000005c
:201a8a0000000000000000000000000000000000000000000000000000000000000000003c
:0a1aaa000000000000000000000032
:201ab400000000000000000000000000000000000000000000000000000000000000000012
:091ad40000000000000000000009
:201add000000000000000000000000000000000000000000000000000000000000000000e9
:0a1afd0000000000000000000000df
:201b07000000000000000000000000000000000000000000000000000000000000000000be
:091b2700000000000000000000b5
:201b3000000000000000000000000000000000000000000000000000000000000000000095
:0a1b5000000000000000000000008b
:201b5a00000200000000000000000000000000000000000000000000000000000000000069
:091b7a0000000000000000000062
:201b8300000000000000000000000000000000000000000000000000000000000000000042
:0a1ba3000000000000000000000038
:201bad00000000000000000000000000000000000000000000000000000000000000000018
:091bcd000000000000000000000f
:201bd6000000200000000000000000000000000000000000000000000000000000000000cf
:0a1bf60000000000000000000000e5
:201c00000000000000000000000000000000000000000000000000000000000000000000c4
:091c2000000000000000000000bb
:201c290000000000000000000000000000000000000000000000000000000000000000009b
:0a1c49000000000000000000000091
:201c5300000000000000000000000000000000000000000000000000000000000000000071
:091c730000000000000000000068
:201c7c00000000000000000000000000000000000000000000000000000000000000000048
:0a1c9c00000000000000000000003e
:201ca60000000000000000000000000000000000000000000000000000000000000000001e
:091cc60000000000000000000015
:201ccf000000000000000000000000000000000000000000000000000000000000000000f5
:0a1cef0000000000000000000000eb
:201cf9000000000000000000000000000000000000000000000000000000000000000000cb
:091d1900000000000000000000c1
:201d22000000000000000000000000000000000000000000000000000000000000000000a1
:0a1d42000000000000000000000097
:201d4c00000000000000000000000000000000000000000000000000000000000000000077
:091d6c000000000000000000006e
:201d750000000000000000000000000000000000000000000000000000000000000000004e
:0a1d95000000000000000000000044
:201d9f00000000000000000000000000000000000000000000000000000000000000000024
:091dbf000000000000000000001b
:201dc8000000000000000000000000000000000000000000000000000000000000000000fb
:0a1de80000000000000000000000f1
:201df2000002000000000000000000000000000000000000000000000000000000000000cf
:091e1200000000000000000000c7
:201e1b000000000000000000000000000000000000000000000000000000000000000000a7
:0a1e3b00000000000000000000009d
:201e450000000000000000000000000000000000000000000000000000000000000000007d
:091e650000000000000000000074
:201e6e00000020000000000000000000000000000000000000000000000000000000000034
:0a1e8e00000000000000000000004a
:201e980000000000000000000000000000000000000000000000000000000000000000002a
:091eb80000000000000000000021
:201ec100000000000000000000000000000000000000000000000000000000000000000001
:0a1ee10000000000000000000000f7
:201eeb000000000000000000000000000000000000000000000000000000000000000000d7
:091f0b00000000000000000000cd
:201f14000000000000000000000000000000000000000000000000000000000000000000ad
:0a1f340000000000000000000000a3
:201f3e0000000000000000000000000000000000040000000000000000000000000000007f
:091f5e000000000000000000007a
:201f670000000000000000000000000000000000000000000000000000000000000000005a
:0a1f87000000000000000000000050
:201f9100000000000000000000000000000000000000000000000000000000000000000030
:091fb10000000000000000000027
:201fba00000000000000000000000000000000000000000000000000000000000000000007
:0a1fda0000000000000000000000fd
:201fe4000000000000000000000000000000000000000000000000000000000000000000dd
:09200400000000000000000000d3
:20200d000000000000000000000000000000000000000000000000000000000000000000b3
:0a202d0000000000000000000000a9
:20203700000000000000000000000000000000000000000000000000000000000000000089
:0920570000000000000000000080
:20206000000000000000000000000000000000000000000000000000000000000000000060
:0a2080000000000000000000000056
:20208a00000200000000000000000000000000000000000000000000000000000000000034
:0920aa000000000000000000002d
:2020b30000000000000000000000000000000000000000000000000000000000000000000d
:0a20d3000000000000000000000003
:2020dd000000000000000000000000000000000000000000000000000000000000000000e3
:0920fd00000000000000000000da
:20210600000020000000000000000000000000000000000000000000000000000000000099
:0a21260000000000000000000000af
:2021300000000000000000000000000000000000000000000000000000000000000000008f
:0921500000000000000000000086
:20215900000000000000000000000000000000000000000000000000000000000000000066
:0a217900000000000000000000005c
:2021830000000000000000000000000000000000000000000000000000000000000000003c
:0921a30000000000000000000033
:2021ac00000000000000000000000000000000000000000000000000000000000000000013
:0a21cc000000000000000000000009
:2021d6000000000000000000000000000000000000000000000000000000000000000000e9
:0921f600000000000000000000e0
:2021ff000000000000000000000000000000000000000000000000000000000000000000c0
:0a221f0000000000000000000000b5
:20222900000000000000000000000000000000000000000000000000000000000000000095
:092249000000000000000000008c
:2022520000000000000000000000000000000000000000000000000000000000000000006c
:0a2272000000000000000000000062
:20227c00000000000000000000000000000000000000000000000000000000000000000042
:09229c0000000000000000000039
:2022a500000000000000000000000000000000000000000000000000000000000000000019
:0a22c500000000000000000000000f
:2022cf000000000000000000000000000000000000000000000000000000000000000000ef
:0922ef00000000000000000000e6
:2022f8000000000000000000000000000000000000000000000000000000000000000000c6
:0a23180000000000000000000000bb
:20232200000200000000000000000000000000000000000000000000000000000000000099
:0923420000000000000000000092
:20234b00000000000000000000000000000000000000000000000000000000000000000072
:0a236b000000000000000000000068
:20237500000000000000000000000000000000000000000000000000000000000000000048
:092395000000000000000000003f
:20239e000000200000000000000000000000000000000000000000000000000000000000ff
:0a23be000000000000000000000015
:2023c8000000000000000000000000000000000000000000000000000000000000000000f5
:0923e800000000000000000000ec
:2023f1000000000000000000000000000000000000000000000000000000000000000000cc
:0a24110000000000000000000000c1
:20241b000000000000000000000000000000000000000000000000000000000000000000a1
:09243b0000000000000000000098
:20244400000000000000000000000000000000000000000000000000000000000000000078
:0a246400000000000000000000006e
:20246e0000000000000000000000000000000000040000000000000000000000000000004a
:09248e0000000000000000000045
:20249700000000000000000000000000000000000000000000000000000000000000000025
:0a24b700000000000000000000001b
:2024c1000000000000000000000000000000000000000000000000000000000000000000fb
:0924e100000000000000000000f2
:2024ea000000000000000000000000000000000000000000000000000000000000000000d2
:0a250a0000000000000000000000c7
:202514000000000000000000000000000000000000000000000000000000000000000000a7
:092534000000000000000000009e
:20253d0000000000000000000000000000000000000000000000000000000000000000007e
:0a255d000000000000000000000074
:20256700000000000000000000000000000000000000000000000000000000000000000054
:092587000000000000000000004b
:2025900000000000000000000000000000000000000000000000000000000000000000002b
:0a25b0000000000000000000000021
:2025ba000002000000000000000000000000000000000000000000000000000000000000ff
:0925da00000000000000000000f8
:2025e3000000000000000000000000000000000000000000000000000000000000000000d8
:0a26030000000000000000000000cd
:20260d000000000000000000000000000000000000000000000000000000000000000000ad
:09262d00000000000000000000a4
:20263600000020000000000000000000000000000000000000000000000000000000000064
:0a265600000000000000000000007a
:2026600000000000000000000000000000000000000000000000000000000000000000005a
:0926800000000000000000000051
:20268900000000000000000000000000000000000000000000000000000000000000000031
:0a26a9000000000000000000000027
:2026b300000000000000000000000000000000000000000000000000000000000000000007
:0926d300000000000000000000fe
:2026dc000000000000000000000000000000000000000000000000000000000000000000de
:0a26fc0000000000000000000000d4
:202706000000000000000000000000000000000000000000000000000000000000000000b3
:09272600000000000000000000aa
:20272f0000000000000000000000000000000000000000000000000000000000000000008a
:0a274f000000000000000000000080
:20275900000000000000000000000000000000000000000000000000000000000000000060
:0927790000000000000000000057
:20278200000000000000000000000000000000000000000000000000000000000000000037
:0a27a200000000000000000000002d
:2027ac0000000000000000000000000000000000000000000000000000000000000000000d
:0927cc0000000000000000000004
:2027d5000000000000000000000000000000000000000000000000000000000000000000e4
:0a27f50000000000000000000000da
:2027ff000000000000000000000000000000000000000000000000000000000000000000ba
:09281f00000000000000000000b0
:20282800000000000000000000000000000000000000000000000000000000000000000090
:0a2848000000000000000000000086
:20285200000200000000000000000000000000000000000000000000000000000000000064
:092872000000000000000000005d
:20287b0000000000000000000000000000000000000000000000000000000000000000003d
:0a289b000000000000000000000033
:2028a500000000000000000000000000000000000000000000000000000000000000000013
:0928c5000000000000000000000a
:2028ce000000200000000000000000000000000000000000000000000000000000000000ca
:0a28ee0000000000000000000000e0
:2028f8000000000000000000000000000000000000000000000000000000000000000000c0
:09291800000000000000000000b6
:20292100000000000000000000000000000000000000000000000000000000000000000096
:0a294100000000000000000000008c
:20294b0000000000000000000000000000000000000000000000000000000000000000006c
:09296b0000000000000000000063
:20297400000000000000000000000000000000000000000000000000000000000000000043
:0a2994000000000000000000000039
:20299e00000000000000000000000000000000000400000000000000000000000000000015
:0929be0000000000000000000010
:2029c7000000000000000000000000000000000000000000000000000000000000000000f0
:0a29e70000000000000000000000e6
:2029f1000000000000000000000000000000000000000000000000000000000000000000c6
:092a1100000000000000000000bc
:202a1a0000000000000000000000000000000000000000000000000000000000000000009c
:0a2a3a000000000000000000000092
:202a4400000000000000000000000000000000000000000000000000000000000000000072
:092a640000000000000000000069
:202a6d00000000000000000000000000000000000000000000000000000000000000000049
:0a2a8d00000000000000000000003f
:202a970000000000000000000000000000000000000000000000000000000000000000001f
:092ab70000000000000000000016
:202ac0000000000000000000000000000000000000000000000000000000000000000000f6
:0a2ae00000000000000000000000ec
:202aea000002000000000000000000000000000000000000000000000000000000000000ca
:092b0a00000000000000000000c2
:202b13000000000000000000000000000000000000000000000000000000000000000000a2
:0a2b33000000000000000000000098
:202b3d00000000000000000000000000000000000000000000000000000000000000000078
:092b5d000000000000000000006f
:202b660000002000000000000000000000000000000000000000000000000000000000002f
:0a2b86000000000000000000000045
:202b9000000000000000000000000000000000000000000000000000000000000000000025
:092bb0000000000000000000001c
:202bb9000000000000000000000000000000000000000000000000000000000000000000fc
:0a2bd90000000000000000000000f2
:202be3000000000000000000000000000000000000000000000000000000000000000000d2
:092c0300000000000000000000c8
:202c0c000000000000000000000000000000000000000000000000000000000000000000a8
:0a2c2c00000000000000000000009e
:202c360000000000000000000000000000000000000000000000000000000000000000007e
:092c560000000000000000000075
:202c5f00000000000000000000000000000000000000000000000000000000000000000055
:0a2c7f00000000000000000000004b
:202c890000000000000000000000000000000000000000000000000000000000000000002b
:092ca90000000000000000000022
:202cb200000000000000000000000000000000000000000000000000000000000000000002
:0a2cd20000000000000000000000f8
:202cdc000000000000000000000000000000000000000000000000000000000000000000d8
:092cfc00000000000000000000cf
:202d05000000000000000000000000000000000000000000000000000000000000000000ae
:0a2d250000000000000000000000a4
:202d2f00000000000000000000000000000000000000000000000000000000000000000084
:092d4f000000000000000000007b
:202d580000000000000000000000000000000000000000000000000000000000000000005b
:0a2d78000000000000000000000051
:202d820000020000000000000000000000000000000000000000000000000000000000002f
:092da20000000000000000000028
:202dab00000000000000000000000000000000000000000000000000000000000000000008
:0a2dcb0000000000000000000000fe
:202dd5000000000000000000000000000000000000000000000000000000000000000000de
:092df500000000000000000000d5
:202dfe00000020000000000000000000000000000000000000000000000000000000000095
:0a2e1e0000000000000000000000aa
:202e280000000000000000000000000000000000000000000000000000000000000000008a
:092e480000000000000000000081
:202e5100000000000000000000000000000000000000000000000000000000000000000061
:0a2e71000000000000000000000057
:202e7b00000000000000000000000000000000000000000000000000000000000000000037
:092e9b000000000000000000002e
:202ea40000000000000000000000000000000000000000000000000000000000000000000e
:0a2ec4000000000000000000000004
:202ece000000000000000000000000000000000004000000000000000000000000000000e0
:092eee00000000000000000000db
:202ef7000000000000000000000000000000000000000000000000000000000000000000bb
:0a2f170000000000000000000000b0
:022f21000000ae
:022f2300110299
:022f25000101a8
:202f270000000000000000000000000000000000000000000000000000000000000000008a
:092f47000001000000000040043c
:202f5000000000000000000000000000000000000000000000000000000000000000000061
:0a2f7000000000000000003c00001b
:202f7a000000000000000000000000000000000000000000000000000000008000000000b7
:092f9a0000020000000000000824
:202fa30000000000000000000000000000000000000000000000000000000000000000000e
:0a2fc3000000000000000000000004
:202fcd00000000000000000000000000000000000000000000000000020000000000800062
:092fed00000100000300000004d3
:202ff6000000000000000000000000000000000000000000000000000020000000000c008f
:0a3016000000000000300000000080
:203020000000000000080000000000002000000000080000000000000a0000c00000008016
:0930400000000000000200000085
:20304900000000000000000000000000000000000000000000000000000000000000000067
:0a306900000000000000000000005d
:2030730000000000100800000000000020000000000800000000000010000000000000816c
:09309300c0000000000200000072
:20309c00000000000000000000000000000000000000000000000000000000000000000014
:0a30bc0010000000000000000000fa
:2030c6000000000000000000000000000000000000000000000000000000000000000000ea
:0930e600000000000000000000e1
:2030ef000000000000000000000000000000000000000000000000000000000000000000c1
:0a310f0000000000000000000000b6
:20311900000000000000000000000000000000000000000000000000000000000000000096
:093139000000000000000000008d
:20314200000000000000000000000000000000000000000000000000000000080000000065
:0a3162000000000000000000000063
:20316c000000000000000000000000000000000000000000000000002000000000000080a3
:09318c0000000000000200000038
:2031950000000000000000000000000000000000000000000000000000a00000000000007a
:0a31b50000000000001800000000f8
:2031bf000000008efbba000000002bdc950800000000000000002954f180000208a03ec46f
:0931df00040000000000000000e3
:2031e80000000000ffd24400000000140b09000000000000080002a81900f000008709231c
:0a32080062c000000000070018007b
:203212000000000271f2e0000410a0dfd1000010000000000010a0d698010150408d7380b3
:093232000000000955dc00100148
:20323b000000000027582e380012038c3d089000400000004008038c0eb0d0004008d0401b
:0a325b0002c000001541000c000441
:20326500000004283562e00012002bddd18a000c0000000000002954d7810c08000000003c
:09328500780000000000000000c8
:20328e0080000000d30f1c34023000142bd10000c0000000000002a81d08a000c00000003d
:0a32ae0000000000000000001408fa
:2032b80000020000000067000010a0dfb3080000000000000011a0d6d11a080000ef570083
:0932d800380000000000000000b5
:2032e10000200000000000400008038c2d010000000000000000038c0e080080000ff97cff
:0a330100078000000000000000003b
:20330b00000000047fa8070020003bcca01800000000000000002955c398000040ef77c052
:09332b0000000000000000000099
:203334000000200047701c38010023ff5a00000000000000000002a81e08e000000ff030f2
:0a335400000000000000000000006f
:20335e000000042831b006000000295781080c00000000000010a0d7b701000244ef5a4019
:09337e0060000000000080000066
:2033870000000000e306c02c060001542991f000000000000008038c1e18c000084ff03d3b
:0a33a7004240000000000300000097
:2033b1000000000af32ce0010010a0cf978100000000000000003bec980800000000000490
:0933d10070000000000001800002
:2033da00000000000a03c02c0000238c3f78d00000000000000003fcde3000000000000196
:0a33fa004680000000000000000003
:203404000000042831b9c280024030ffb780000c0000000000603bf780180008000000204a
:093424000000000000000000009f
:20342d0080000080e306c0710030038dfd08f00080000000000013fdca00b0048000000121
:0a344d0042800000000000000008ab
:203457000000002855b260280000fb44e8000000000000000080b94ed001000000001e867b
:09347700028000001ec8d0a00074
:2034800000000000e5b30439000101ec0d9000000000000000000215c800b000004a0026cd
:0a34a0004010000003dea1800000d0
:2034aa0000000020f935e7401400fb64e0001810000000000000294c9001001042a452c004
:0934ca002800410295790010016f
:2034d300000000008b3a8260001001eccf50000040000000000002a80bf0a000404640b01b
:0a34f300000001011e80f008000433
:2034fd00000000285da3c0157200fb44af80000c000000004011a0cfa100414c00ffb31610
:09351d00600001030cde50a00067
:2035260000000000e5373e02013001ef5d180000c00000002200034c0e080200c00df57810
:0a3546000000002020c3f0900000f8
:2035500000020020f9b403c000005a6580180000000000000000294d8801400200507680eb
:093570006c000023bd5e01800027
:20357900000000008b92807c000001a4d001000000000000000002a81ef0a14000000030da
:0a359900020000213fe48010000052
:2035a3000000002e3da8064000005a45c8011000000000000010a0cfa8190100402e38143c
:0935c300600001033ce0598000a6
:2035cc00000020008377143c000001a64070e000000000000100134c0d7190080041d02c8b
:0a35ec002400004033c0000010006e
:2035f60000000020fbb6674000005a65a01d0000000000000000294dd818000000af7680b6
:093616002000000a025e18e00029
:20361f00000000008b1a8430000001a4c001f00000000000000001541ed10004000af0009a
:0a363f00000000002c2ec01008004f
:203649000000002855f0000040025a65c9191080000000000010a0cfa38e1c0040a41700ba
:09366900280000012a48180000a5
:2036720000000000e5170000000001a4c0788004000000000004034c0b099000000fd0ac59
:0a369200040000002d5ea0000000ff
:20369c0000000020fdb4061000015a64c00c180c0000000000000000001c000c0000000050
:0936bc0000000002bd4001800085
:2036c500000000008b728030808001a4c0000000c00000000000000000018000c0000000d2
:0a36e5000000000017c28f00000073
:2036ef000000002a537a000010005a45a00000000000000020000000038b000000f57a80d8
:09370f0000000000000018000099
:203718000000208105063c28000481a4d0000000000000000c0000000001f400080f500020
:0a3738000200000000000080000005
:20374200000000000000000004005a64c79e000000000000000000000800009000000000a8
:093762000000000b29d800000151
:20376b000000000000000000051041a6c008000800000000000000000070e00240000000e0
:0a378b0000000000301f950d00043f
:20379500000000000000002846015a4588010000000000100084b94490081c0c000000200c
:0937b500000000000000180000f3
:2037be00c000000000000000622001a4c0b0f00000000002800002146c010000800000001f
:0a37de00c2400000000000000008d7
:2037e800000000000000001000005a64c00000000000000000000000001e00000000000015
:0938080000000049094e00000017
:203811000000000000000000b00021a5c010000000000000000000000000b00000000001a0
:0a38310040000000389f90000000e6
:20383b00000000000000078000005a44a1010000000000000001b965b000000000000000d7
:09385b0000000000000000000064
:203864000000240000000040500041a4d008c0000000000050004216ec300000000000004f
:0a3884000000000000000700000033
:20388e00000000000000000000015a44c100000000000000000029559001000000000000ab
:0938ae0000000000000000000011
:2038b7000000000000000000000001a54000000000000000000002a81f10900000000000a2
:0a38d70000000000000000000000e7
:2038e100000000000000000000005a4580000000000000070010a0c5f000200008a5568099
:0939010000000000000038000085
:20390a000800000000000000500021a4d0000000000000000200534c2a000000000fa0e056
:0a392a00000020000000000f000064
:20393400000000000000070003015a44c00100000000000000000000000100080000000000
:0939540004000000000000000066
:20395d008000000000002c40003001a6c000e0000000000000000000009090008000000047
:0a397d0002c0000000000000000876
:20398700000000000000000040005a65800000000000001020000000000100000000000070
:0939a700000000083cc000000013
:2039b00000002400000000000240a1a55000000100000002850000000000e0010000000092
:0a39d0000000040403c20000001010
:2039da00000000000000000010005a65a79e0000000000000000294e8000000000000000c2
:0939fa0000004000000000000183
:203a03000800000000000000020041a44000000000000000000002a80b00000000000000bf
:0a3a23000240010000000000000452
:203a2d000000000000000008400003c5d00000000000000040000000000020000000000633
:093a4d0000000000000000000070
:203a56000000000000000000120023c00a00000000000000020000000090000000000000bf
:0a3a76000000000000000000000046
:203a8000000100000000000000000000001c000000000000000000000001a000060f72c021
:093aa0000000000000000000001d
:203aa9000020000000000000300000000001000000000000000000000090e000000af0fc46
:0a3ac90000000000000000000000f3
:203ad300000000000000000000000000000000000000000000002bd7b00000000000000021
:093af30000000000000058000072
:203afc000000040000000000500000000000000000000000000000141c0000000000000026
:0a3b1c00000000000000000000009f
:203b2600000040000000000050000000001c000000000000000000000000000000000000d3
:093b460000000000000000000076
:203b4f000000000000000000020000000001000000000000000000000000800000000000d3
:0a3b6f00000000000000000000004c
:203b7900000000000000000000000000000000000000000000000000000000000000001616
:093b990000000000000000000023
:203ba2000800000000000000500000000000000000000000000000000000000000000000ab
:0a3bc2002000000000000000400099
:203bcc000000000000000000000000000000000000000000000000000000000000000020b9
:093bec0000002000000000800030
:203bf500c000000000000000000000000000000000000000000000000000000000000001ef
:0a3c1500c000020000000000000cd7
:203c1f0000000016917a000000005a45a3000100000000000000fb45ff810000020532c068
:093c3f0000008000000001e0001b
:203c4800000000c869002400000301a4009000000000000008030120dfb8a0010005f0a8ce
:0a3c68000000040000000f1000101f
:203c7200000000169160080000025a64a00800000000002e10005964b800001002051aa037
:093c920038004018144d10000127
:203c9b000000001869500030000001a4d00100000000000112020166de50f000600af02b73
:0a3cbb00c640010017c2b0800004eb
:203cc500000008569168004004025a44830000000000000800014845d700108802057adebd
:093ce50020003018155a500000af
:203cee008000000069900024000001a5d000e00000000000000001efdf080000a005f0a4b3
:0a3d0e0006c002002bc0c08f004c5d
:203d1800000200169160000000025a44a38000000000000600005964958000000205779ccd
:093d38006800001815ec80100071
:203d41000000009069700030600001a550089a000000000030000166cc000880000af0e804
:0a3d61002400000017c28d0b0000c3
:203d6b00000000569968000000005a64800000000000000000014865db010020020572f68a
:093d8b0000000000000001e0004e
:203d94000000200069b00000000021a75000000000000000000001ecdef880020005f0baca
:0a3db400c00010000000000a00002b
:203dbe00000008569961670000005a64a10800800000002800015964c50f0000820572b6d6
:093dde00040000000000000004d4
:203de7000000000069301600000021a4500100040000000100000166d998f000000af069c7
:0a3e070043c0000000000500008029
:203e1100000008569168070000005a44800800000000000000004865d700000002053ad474
:093e310028000013fc6d000000e4
:203e3a000000000069700068000011a65001000000000000000001ef5d0801c00005f0ad67
:0a3e5a004000000029ced000000057
:203e6400000000969960004000005a64a00040000000000000005965838c20080247b804d7
:093e840020013013d4ec10ea0017
:203e8d00c000000469b00030000021a6d0000a000000000100000166ddd1e0048008b1a98b
:0a3ead00400022001682c010400cf5
:203eb700000040169170000000005a45a80820000000000100015965f500000000af3b1472
:093ed700000000000000000000e2
:203ee00000002028695400000000a1a5c0f0000000000001320081675a080000000ff079d2
:0a3f000042c00000000000000000b5
:203f0a00000000169938000000005a44800e00000000002050004865a5000140000000146d
:093f2a000000800000000000000e
:203f33000800009069f00000000021a55001900000000001020001ecd908000800000001fc
:0a3f5300428700000000000000009b
:203f5d00000000169970038000005a65a71e00000000000000005965e000000000ef9a8671
:093f7d0028000000000000000013
:203f86000000000869340000000041a44000940000000000100001674f000008000ff1a846
:0a3fa600028000000000000000008f
:203fb000000100169938000000005a64800100000000000000004845b58a004040ef160079
:093fd00000010803dcec00000014
:203fd9000000000869700000000021a45000e00000000000300001eed9d1b088000ff0e70b
:0a3ff900400020003ccef000000064
:20400300000040569970070000205a45a00000000000000700005965c98a000000ef33ce90
:0940230060000000000001f00043
:20402c000000000069b41400000001a54000000000000000020001675d79e480000fff7833
:0a404c00240000000000000a00003c
:2040560000008056913bc04000005a64800800000000002050004845b5180000c0ef524057
:0940760060000000000080000061
:20407f000000000069701630000021a4d000000000000001020001ecdb0901c0000ff0ac2d
:0a409f000000000000000500000012
:2040a900000000569170038000005a45a00800000000000800005964e7810000402c33a664
:0940c900700000217cc00004001d
:2040d2000800000069b40068000041a74000000000000001000001674cd0c0400003c0ba17
:0a40f200634400002bc0c100000071
:2040fc0000000040f13a004000015a4480000c000000000000004845b0010000403c000014
:09411c002000000000000000007a
:2041250000000000f0030c28000001a45000000000000000000001efda9090040003c000ad
:0a4145000000000000000000000070
:20414f00000000000000000000001a45800000000000000000005965b388000000efb39e38
:09416f0068000000000000f000ef
:2041780000002400000000000200a1a4100000000000000008008167cad90100000ff36da9
:0a419800e280000000000919000099
:2041a200000000000000000000000000030010000000000000004845e000000002055a46d6
:0941c2000000400814480000014f
:2041cb000800000000000000000000000008080000000000000001eed80090020005f03c32
:0a41eb002240012017c2800d0004dd
:2041f5000000000000000008000000000000000000000000000411c49000000002051f868d
:0942150000003000000050000020
:20421e008000000000000000000000000000000000000000100003465f000000000af0a0ae
:0a423e000000030000000000000c67
:20424800000100000000000000000000000000000000000000000146100b00000605725e18
:09426800640000000000000000e9
:204271000000000000000000000000000000000000000000000000280e01a0000005f03031
:0a42910006400000000000000000dd
:20429b0000008000000000000000000000000100000000000000015e078000000205720023
:0942bb006000080015e00000009d
:2042c40000000c0000000000000000000000000000000000000000280f709140000af060fc
:0a42e400400200000280f00000001c
:2042ee0000000000000000000000000000000000000000000000014c10000002025f3206b8
:09430e0024000000000080000002
:204317000000000000000000000000000000000400000000000000280e0000000005f080d7
:0a4337000600000000000300000073
:2043410000000000000000004000000000000000000000000000015e0100000000ef3a662d
:094361006c0000000000380000af
:20436a000800000000000000000000000000000000000000000000280d080000000ff9b82e
:0a438a0062800000000000800000c7
:2043940000000000000000000000000000000000000000000000015e11880000028bda208a
:0943b4006400220014e100000085
:2043bd008000000000000000000000000000000000000000000000280e09b0000008b58232
:0a43dd00c34002000282e00a00085b
:2043e70000008000000000000800000000000000000000000000015600000000006fffe089
:0944070000000803d5c818a0004c
:204410000800080000000000408000000000000000000000020040280f100000200af9ad63
:0a44300042c300041683d010000000
:20443a0000000000000000000000015ec000000000000000000001461800000040e75a6003
:09445a00000041030cfd0000010b
:204463000800000000000000000200141000000000000000000400282a709000080cb0757c
:0a448300400001043081c000000475
:20448d00000000000000000000000000000000000000000000000156a000000042837a8653
:0944ad0004000108a14ad010002e
:2044b60000000000000000000000000000000000000000000000001400009000008020356d
:0a44d600c20000820a010188000004
:2044e0000003000000000000200000000000000000000000008001461001c00000af7206da
:094500006800000281fb0180004b
:204509000000000000000000000000000000000000000000000000280a00a000080ff0b009
:0a452900000000002e34a00900007d
:20453300000000000000000000000000000000000000000000000157c000000040e2786056
:09455300280000000000800000b7
:20455c0000000000000000000000000000100000000000000000401410000000304d10340a
:0a457c00440000000000070a0000e0
:2045860000000000000000000000000000000000000000000000014411080100c0c73846b1
:0945a60000000002bd4c80f00091
:2045af000000000000000000000000000000000000000000000000282a008000000cb0bba3
:0a45cf00400000c03fc2811a000046
:2045d900000000000000000000000000000000000000000000400157c380000000af5014d4
:0945f900200001033d4000000018
:20460200000000000000000000000000000000000000000000000014000000000005f0b8d7
:0a4622002000000033c20100000078
:20462c00000000000000000000000000001e0000000000000040014e1000100000a03aa027
:09464c0000000000000001a000c4
:204655000000000000000000000000000001000000000000000000280a000000000a00c048
:0a46750043400000000000000000b8
:02467f00000039
:02468100110323
:02468300010133
:20468500000000000000000010000000000000400000000010000000000000400000000075
:0946a5000000000000000000000c
:2046ae000000000000000000000000000000000000000000000000000000000000000000ec
:0a46ce0000000000000000000000e2
:2046d8000000000000000000200000000000008000000f0020000000000000800000000073
:0946f800000000000000000000b9
:20470100000000000000000000000000000000000000000000000000000300000000000095
:0a472100000000000000000000008e
:20472b00000000000000000010000010007000400c00000010000000000000400000000042
:09474b0000000000000000000065
:204754000000000000c00000000000020004000000800000000000020000000000000000fd
:0a477400000000000000000000003b
:20477e00000000000008000000000000202800000008000000000000200000000000008023
:09479e0000000000000200000010
:2047a7000000000000000000000000000000400000000000000000000000000000000000b2
:0a47c70000000000000000000000e8
:2047d10000000000000c00000000000030000000000c0000000000003000000000000080d0
:0947f100000000000002000000bd
:2047fa0000000000000000000000000000000000000000000000000000000000000000009f
:0a481a000000000000000000000094
:204824000000000008000c0000000030000000000c00000000000020000000000000000004
:094844000000000000000000006b
:20484d000000000000800010010000010000000400000000010000030000000400000000ad
:0a486d000000000000000000000041
:204877000000000000001c0000000000000000000000000000000000000000000000000005
:0948970000000000000000000018
:2048a00000000000018001000200000000000008000000f002000000000000080000000072
:0a48c00000000000000000000000ee
:2048ca0000000000000800000000000020000000000800000000002020000000000000005e
:0948ea00000000000000000000c5
:2048f300000000000000000001000000000000040000000001000000000300040000000098
:0a491300000000000000000000009a
:20491d0000000000000000000000000000000000000000000000000000000000000000007a
:09493d0000000000000000000071
:20494600000000000000000000000000000000000000000000000000000000000000000051
:0a4966000000000000000000000047
:20497000000000000000000000000000000000000000000000000000000000000000000027
:094990000000000000000000001e
:204999000000000000000000000000000000000000000000000000000000000000000000fe
:0a49b90000000000000000000000f4
:2049c3000000000000000000000000000000000000000000000000000000000000000000d4
:0949e300000000000000000000cb
:2049ec000000000000000000000000000000000000000000000000000000000000000000ab
:0a4a0c0000000000000000000000a0
:204a160000020000000000000000000000000000000000000000000000000000000000007e
:094a360000000000000000000077
:204a3f00000000000000000000000000000000000000000000000000000000000000000057
:0a4a5f00000000000000000000004d
:204a690000000000000000000000000000000000000000000000000000000000000000002d
:094a890000000000000000000024
:204a92000000200000000000000000000000000000000000000000000000000000000000e4
:0a4ab20000000000000000000000fa
:204abc000000000000000000000000000000000000000000000000000000000000000000da
:094adc00000000000000000000d1
:204ae5000000000000000000000000000000000000000000000000000000000000000000b1
:0a4b050000000000000000000000a6
:204b0f00000000000000000000000000000000000000000000000000000000000000000086
:094b2f000000000000000000007d
:204b380000000000000000000000000000000000000000000000000000000000000000005d
:0a4b58000000000000000000000053
:204b6200000000000000000000000000000000000000000000000000000000000000000033
:094b82000000000000000000002a
:204b8b0000000000000000000000000000000000000000000000000000000000000000000a
:0a4bab000000000000000000000000
:204bb5000000000000000000000000000000000000000000000000000000000000000000e0
:094bd500000000000000000000d7
:204bde000000000000000000000000000000000000000000000000000000000000000000b7
:0a4bfe0000000000000000000000ad
:204c0800000000000000000000000000000000000000000000000000000014000000000078
:094c280001000000000000000082
:204c3100000000000000000000000000000000000000000000000000000000000000000063
:0a4c51000008000000000000000051
:204c5b00000000000000000000000000000000000000000000000000000014000000000025
:094c7b000100000000000000002f
:204c8400000000000000000000000000000000000000000000000000000000000000000010
:0a4ca40000080000000000000000fe
:204cae000000000000000000000000000000000000000000000000000000000000000000e6
:094cce00000000000000000000dd
:204cd7000000000000000000000000000000000000000000000000000000000000000000bd
:0a4cf70000000000000000000000b3
:204d0100000000000000000000000000000000000000000200000000000000000000000090
:094d210000000000000000000089
:204d2a00000030000000000000000000000000000000000000000000000000000000000039
:0a4d4a00000000000000000000005f
:204d54000000000000000000000000000000000000000000000000000000400000000000ff
:094d740000000000000000000036
:204d7d00000000000000000000000000000000000000000000000000000000000000000016
:0a4d9d00000000000000000000000c
:204da700800040000000000000000000000000000000000000000000000008000000000024
:094dc700000000000000000000e3
:204dd000000000000000000000000000000000000000000280000000000000000000000041
:0a4df00000000000000000000000b9
:204dfa00000000000000000000000000000000000000000080000000000000000000000019
:094e1a000000000000000000008f
:204e230000000000000000000000000000000000000000000000000000000000000000006f
:0a4e43000000000000000000000065
:204e4d00000000000000000000000000000000000000000000000000000000000000000045
:094e6d000000300000000000000c
:204e7600040000000000000000000000000000000000000000000000000000000000000018
:0a4e96000000020000000000000010
:204ea000800000000000000000000000000000000000000000000000000000000000000072
:094ec000200000000000000000c9
:204ec9000000000000000000000000000000000000000000000000000000000000000000c9
:0a4ee90000000000000000000000bf
:204ef300080000000000000000000000000000000000000000000000000000000000000097
:094f130000000000000000000095
:204f1c000480000000000000000000000000000000000000000000000000000000000000f1
:0a4f3c00000000000000000000006b
:204f460000020000000000000000000000000000000000000000000000000000110f000029
:094f660000000000000000000042
:204f6f000000000000000000000000000000000000000000000000000000000010a0f7007b
:0a4f8f000000000000000000000018
:204f99000000000000000000000000000000000000000000000000000000000000000000f8
:094fb900400000000000000000af
:204fc2000000200000000000000000000000000000000000000000000000000000000000af
:0a4fe20002000000000000000000c3
:204fec000000000000000000000000000000000000000000000000000000000000000000a5
:09500c000000000000000000009b
:205015000006800000000000000000000000000000000000000000000000000000000000f5
:0a5035000000000000000000000071
:20503f00000000000000000000000000000000000000000000000000000000000000000051
:09505f0000001000000000000038
:20506800000000000000000000000000000000000000000000000000000000000000000028
:0a508800000004000000000000001a
:205092000002000000000000000000000000000000000000000000000000000000000000fc
:0950b20000008000000000000075
:2050bb000000000000000000000000000000000000000000000000000000000000000000d5
:0a50db0000000800000000000000c3
:2050e5000000000000000000000000000000000000000000000003c00000000800000000e0
:0951050000002000000000000081
:20510e0000000000000000008000000000000200000000000000183ce0000000800000004b
:0a512e000000030000000000000074
:205138000000000000000000000000000000000000000000000000000d0000000000000248
:095158000000000000000000004e
:205161000000000000000000000000000000000000000000000000000080000000000000ae
:0a518100e000000000000000000044
:20518b00000000000000000500000000000000000000000000000000000c000000000000f3
:0951ab00240000000000000000d7
:2051b4000000000000000000000000000000000000000000000000000000000000000000db
:0a51d40000000000000000000000d1
:2051de000002000000000000000000000000000000000000000000000b00000000000000a4
:0951fe00000000000000000000a8
:20520700000000000000000000000000000000000000000000000000008000000000000007
:0a522700000000000000000000007d
:20523100000000000000000400000000000000000000000000001680f0000000040f0000c0
:0952510000000000000000000054
:20525a00000020000000000000000000000000000000000000001a94000000000020f50051
:0a527a00000000000000000000002a
:20528400000000000000000000000000000000000000000000000000000000080000000002
:0952a40040003000000000000091
:2052ad0000000000000000000000000000000000000000000000000000000000c000000021
:0a52cd0007000300000000000000cd
:2052d700000000000000000000000000000000000000000000000000000c000400000000a7
:0952f7000000100000000000009e
:2053000000000000000000000000000000000000000000000000000000001001000000007c
:0a532000000004000000000000007f
:20532a000000000000000000000000000000000000000000800000000000001000000000d3
:09534a000000400000000000001a
:2053530000000000000000000000000000000000000000000000000000000000000000003a
:0a5373000000000000000000000030
:20537d000000000000000000000000000000000000000000000000000000000c0000000004
:09539d0000000000000000000007
:2053a6000000000000000000000000000000000000000000000000000000c00080000000a7
:0a53c60000000000000000000000dd
:2053d0000000000000000000000000000000000000000000000000000000000000000000bd
:0953f000000000000000000000b4
:2053f900000000000000000000000000000000000000000000000000000000000000000094
:0a5419000000000000000000000089
:205423000000000000000000000000000000000000000000008003c0000000000000000026
:0954430000000000000000000060
:20544c0000000000000000000000000000000000000000000000083de0000000000000001b
:0a546c000000000000000000000036
:205476000000000000000000000000000000000000000000008003c200000002005f0a80e6
:095496000000000000000000000d
:20549f0000000000000000000000000000000000000000000000083c40300000088af5842e
:0a54bf0000000000000000000000e3
:2054c9000000000000000000000000000000000000000000000003c20000000000000014ea
:0954e900000000000000000000ba
:2054f20000000000000000000000000000000000000000000004083c6001c8000000000029
:0a551200020000000000000000008d
:20551c000000000000000000000000000000000000000000002003c20090000c00000000ee
:09553c0000000000000000000066
:2055450000000000000000000000000000000000000000000000083cc059c00080000000a9
:0a556500000000000000000000003c
:20556f000000000000000000000000000000000000000000000003c003001804000000003a
:09558f0000000000000000000013
:2055980000000000000000000000000000000000000000000004083d4080000100000000e9
:0a55b80000000000000000000000e9
:2055c200000000000000000000000000000000000000000000000000008000100000000039
:0955e2000000400000000000017f
:2055eb00000000000000000000000000000000000000000000000000003800000000000068
:0a560b000000000000000000000095
:20561500000000000000000000000000000000000000000000000000000000000000000075
:095635000000000000000000006c
:20563e0000000000000000000000000000000000000000000000000000000000000000004c
:0a565e000000000000000000000042
:205668000000000000000000000000000000000000000000000000000000000000000a40d8
:0956880000000000000000000019
:2056910000000000000000000000000000000000000000000000000000000000100a03706c
:0a56b10000000000000000000000ef
:2056bb000000000000000000000000000000000000000000000000000000000000000000cf
:0956db00000000000000000000c6
:2056e4000000000000000000000000000000000000000000000000000000000000000000a6
:0a5704000380000000000000000018
:20570e00000200000000000000000000000000000000000000000000000000000000000079
:09572e0000000000000000000072
:20573700000000000000000000000000000000000000000000000000000000000000000052
:0a575700e000000000000000000068
:20576100000000000000000000000000000000000000000000000000000000000000000028
:095781000000000000000000001f
:20578a000000200000000000000000000000000000000000000000000000000000000000df
:0a57aa0000000000000000000000f5
:2057b4000000000000000000000000000000000000000000000000000000000000000000d5
:0957d400000000000000000000cc
:2057dd000000000000000000000000000000000000000000000000000000000000000000ac
:0a57fd0000000000000000000000a2
:20580700000000000000000000000000000000000000000000000000000000000000000081
:0958270000000000000000000078
:20583000000000000000000000000000000000000000000000000000000000000000000058
:0a585000000000000000000000004e
:20585a0000000000000000000000000000000000000000008000000000000000000000149a
:09587a0000000000000000000025
:20588300000000000000000000000000000000000000000000000000000000000000000005
:0a58a30000000000000000000000fb
:2058ad000000000000000000000000000000000000000000000000000000000c00000024ab
:0958cd00000000000000000000d2
:2058d600000000000000000000000000000000000000000000000000000000008000000230
:0a58f60000000000000000000000a8
:20590000000000000000000000000000000000000000000000000000000000000402da00a7
:095920000000000000000000007e
:205929000000000000000000000000000000000000000000000000000000000008207d3485
:0a5949000000000000000000000054
:20595300000000000000000000000000000000000000000000000000000000000000002c08
:095973000000000000000000002b
:20597c00000000000000000000000000000000000000000000000000000000000000000209
:0a599c000000000000000000000001
:2059a6000002000000000000000000000000000000000000000000000000000000000000df
:0959c600000000000000000000d8
:2059cf000000000000000000000000000000000000000000000000000000000000000000b8
:0a59ef00022000000000000000008c
:2059f900000000000000000000000000000000000000000000203c0000000000007f0a8227
:095a190060000000000000000024
:205a2200000020000000000000000000000000000000000000000bc06001e000050bf384b1
:0a5a42004700000000000000000013
:205a4c000000000000000000000000000000000000000000000000000000000000109eace0
:095a6c00006000000000000000d1
:205a75000000000000000000000000000000000000000000000000000000000000000fa65c
:0a5a95000000000000000000000007
:205a9f00000000000000000000000000000000000000000000000000000e00040000002ca9
:095abf0038001000000000000096
:205ac8000000000000000000000000000000000000000000000000000000100100000002ab
:0a5ae8000040040000000000000070
:205af200000000000000000000000000000000000000000000000000000000000000000094
:095b120000050000000000000085
:205b1b00000000000000000000000000000000000000000000000000000000000000000169
:0a5b3b00c00420000000000000007c
:205b4500000000000000000000000000000000000000000000000084d100000000000000eb
:095b650000002000000000000017
:205b6e0084000000000000000000000000000000000000000002081dcd800000000000001f
:0a5b8e000000020000000008000cf7
:205b980080000000000000000000000000000000000000000000102de11900000000000036
:095bb80000000000282e00aa00e4
:205bc100000000000000000000000000000000000000000000020a15de81900000000000b4
:0a5be100000700002944e19940008c
:205beb00080000000000000000000000000000000000000000000094c0000000000000003e
:095c0b0000000000000000f000a0
:205c140004800000000000000000000000000000000000000006081dcd198000000000005b
:0a5c34000000000000000000000066
:205c3e0000020000000000000000000000000000000000000000000009098000000000248e
:095c5e000000000000000000003d
:205c670000000000000000000000000000000000000000000000000000801000000000028b
:0a5c87000000000000000000000013
:205c91000000000000000002000000000000000000000000000000000000080000000000e9
:095cb10000000002800b5000000d
:205cba0000002000000000000000000000000000000000000000000000000080000000002a
:0a5cda00000050109d1f9000000014
:205ce4000040000000000000000000000000000000000000000000a5e008000000000000d3
:095d040020002002a8305000002c
:205d0d00c00780000000000000000000000000000000000000040a85dc00100000000000b0
:0a5d2d00004002002a84a78000084d
:205d37000000000000000000000000000000000000000000000000bc80000004000000000c
:095d570038001002800b009000de
:205d600040000000000000000000000000000000000000000004081fcc00000100000000eb
:0a5d8000004004109d1f9001001068
:205d8a00000200000000000000000000000000000000000080000085e108000000050b5c9d
:095daa0000000002d7ee00000029
:205db300000000000000000000000000000000000000000000040a85ce819000002f512bb3
:0a5dd300600000001294e1801c0043
:025ddd000000c4
:035ddf0062003f20
:035de200720080cc
:025de5001100ab
:035de70082000037
:025dea000103b3
:085dec000000000000000000af
:085df4000000000000000000a7
:085dfc0000000000000000009f
:085e0400000000000000000096
:0261ec000000b1
:0361ee00820080ac
:0261f1000103a8
:0861f3000000000000000000a4
:0861fb0000000000000000009c
:08620300000000000000000093
:08620b0000000000000000008b
:0265f3000000a6
:0265f500110192
:0365f7008200001f
:0265fa0001039b
:0865fc00000000000000000097
:0866040000000000000000008e
:08660c00000000000000000086
:0866140000000000000000007e
:0269fc00000099
:0369fe0082008094
:026a010001038f
:086a030000000000000000008b
:086a0b00000000000000000083
:086a130000000000000000007b
:086a1b00000000000000000073
:026e030000008d
:026e0500110278
:036e070082000006
:026e0a00010382
:086e0c0000000000000000007e
:086e1400000000000000000076
:086e1c0000000000000000006e
:086e2400000000000000000066
:02720c00000080
:03720e008200807b
:02721100010377
:08721300000000000000000073
:08721b0000000000000000006b
:08722300000000000000000063
:08722b0000000000000000005b
:02761300000075
:0276150011035f
:03761700820000ee
:02761a0001036a
:08761c00000000000000000066
:0876240000000000000000005e
:08762c00000000000000000056
:0876340000000000000000004e
:027a1c00000068
:037a1e0082008063
:027a210001035f
:087a230000000000000000005b
:087a2b00000000000000000053
:087a330000000000000000004b
:087a3b00000000000000000043
:027e230000005d
:017e2500223a
:027e26008d3994
:027e2800010651
:00000001FF
